{
  "contractName": "Evidence",
  "abi": [
    {
      "inputs": [],
      "stateMutability": "nonpayable",
      "type": "constructor"
    },
    {
      "inputs": [
        {
          "internalType": "string",
          "name": "",
          "type": "string"
        },
        {
          "internalType": "uint256",
          "name": "",
          "type": "uint256"
        }
      ],
      "name": "Cases",
      "outputs": [
        {
          "internalType": "string",
          "name": "caseName",
          "type": "string"
        },
        {
          "internalType": "string",
          "name": "caseNumber",
          "type": "string"
        },
        {
          "internalType": "string",
          "name": "caseReason",
          "type": "string"
        },
        {
          "internalType": "string",
          "name": "investorID",
          "type": "string"
        }
      ],
      "stateMutability": "view",
      "type": "function",
      "constant": true
    },
    {
      "inputs": [
        {
          "internalType": "string",
          "name": "",
          "type": "string"
        },
        {
          "internalType": "uint256",
          "name": "",
          "type": "uint256"
        }
      ],
      "name": "Items",
      "outputs": [
        {
          "internalType": "string",
          "name": "agent",
          "type": "string"
        },
        {
          "internalType": "string",
          "name": "method",
          "type": "string"
        },
        {
          "internalType": "string",
          "name": "hashing",
          "type": "string"
        },
        {
          "internalType": "string",
          "name": "Time",
          "type": "string"
        },
        {
          "internalType": "string",
          "name": "gentInfo",
          "type": "string"
        },
        {
          "internalType": "string",
          "name": "pid",
          "type": "string"
        },
        {
          "internalType": "uint256",
          "name": "itemNo",
          "type": "uint256"
        },
        {
          "internalType": "string",
          "name": "hashofhash",
          "type": "string"
        }
      ],
      "stateMutability": "view",
      "type": "function",
      "constant": true
    },
    {
      "inputs": [],
      "name": "t",
      "outputs": [
        {
          "internalType": "uint256",
          "name": "",
          "type": "uint256"
        }
      ],
      "stateMutability": "view",
      "type": "function",
      "constant": true
    },
    {
      "inputs": [
        {
          "internalType": "string",
          "name": "_name",
          "type": "string"
        },
        {
          "internalType": "string",
          "name": "_reason",
          "type": "string"
        },
        {
          "internalType": "string",
          "name": "_pid",
          "type": "string"
        }
      ],
      "name": "createCase",
      "outputs": [],
      "stateMutability": "nonpayable",
      "type": "function"
    },
    {
      "inputs": [
        {
          "internalType": "string[]",
          "name": "_data",
          "type": "string[]"
        },
        {
          "internalType": "string",
          "name": "_agent",
          "type": "string"
        },
        {
          "internalType": "string",
          "name": "_method",
          "type": "string"
        },
        {
          "internalType": "string",
          "name": "_hash",
          "type": "string"
        },
        {
          "internalType": "string",
          "name": "_Time",
          "type": "string"
        },
        {
          "internalType": "string",
          "name": "_agentInfo",
          "type": "string"
        },
        {
          "internalType": "string",
          "name": "_pid",
          "type": "string"
        },
        {
          "internalType": "string",
          "name": "_hashofhash",
          "type": "string"
        }
      ],
      "name": "createEvid",
      "outputs": [],
      "stateMutability": "nonpayable",
      "type": "function"
    },
    {
      "inputs": [
        {
          "internalType": "string",
          "name": "_pid",
          "type": "string"
        }
      ],
      "name": "viewCase",
      "outputs": [
        {
          "components": [
            {
              "internalType": "string",
              "name": "caseName",
              "type": "string"
            },
            {
              "internalType": "string",
              "name": "caseNumber",
              "type": "string"
            },
            {
              "internalType": "string",
              "name": "caseReason",
              "type": "string"
            },
            {
              "internalType": "string",
              "name": "investorID",
              "type": "string"
            }
          ],
          "internalType": "struct Evidence.Case[]",
          "name": "",
          "type": "tuple[]"
        }
      ],
      "stateMutability": "view",
      "type": "function",
      "constant": true
    },
    {
      "inputs": [
        {
          "internalType": "string",
          "name": "_caseNumber",
          "type": "string"
        }
      ],
      "name": "viewEvid",
      "outputs": [
        {
          "components": [
            {
              "internalType": "string[]",
              "name": "data",
              "type": "string[]"
            },
            {
              "internalType": "string",
              "name": "agent",
              "type": "string"
            },
            {
              "internalType": "string",
              "name": "method",
              "type": "string"
            },
            {
              "internalType": "string",
              "name": "hashing",
              "type": "string"
            },
            {
              "internalType": "string",
              "name": "Time",
              "type": "string"
            },
            {
              "internalType": "string",
              "name": "gentInfo",
              "type": "string"
            },
            {
              "internalType": "string",
              "name": "pid",
              "type": "string"
            },
            {
              "internalType": "uint256",
              "name": "itemNo",
              "type": "uint256"
            },
            {
              "internalType": "string",
              "name": "hashofhash",
              "type": "string"
            }
          ],
          "internalType": "struct Evidence.Item[]",
          "name": "",
          "type": "tuple[]"
        }
      ],
      "stateMutability": "view",
      "type": "function",
      "constant": true
    },
    {
      "inputs": [],
      "name": "tvalue",
      "outputs": [
        {
          "internalType": "uint256",
          "name": "",
          "type": "uint256"
        }
      ],
      "stateMutability": "view",
      "type": "function",
      "constant": true
    }
  ],
  "bytecode": "0x608060405260006004553480156200001657600080fd5b506200007c60405180604001604052806002815260200161743160f01b815250604051806040016040528060028152602001613a1960f11b8152506040518060400160405280600681526020016530a0309734b760d11b8152506200054c60201b60201c565b620000e160405180604001604052806002815260200161703160f01b81525060405180604001604052806002815260200161381960f11b8152506040518060400160405280600681526020016530a0309734b760d11b8152506200054c60201b60201c565b6040805160078082526101008201909252600091816020015b6060815260200190600190039081620000fa5790505090506040518060400160405280600d81526020016c6140612e696e3a434153453a3160981b815250816000815181106200015a57634e487b7160e01b600052603260045260246000fd5b60200260200101819052506040518060400160405280600881526020016770656e647269766560c01b81525081600181518110620001a857634e487b7160e01b600052603260045260246000fd5b60200260200101819052506040518060400160405280600381526020016231323360e81b81525081600281518110620001f157634e487b7160e01b600052603260045260246000fd5b6020026020010181905250604051806040016040528060048152602001637331323360e01b815250816003815181106200023b57634e487b7160e01b600052603260045260246000fd5b60200260200101819052506040518060400160405280600381526020016241424360e81b815250816004815181106200028457634e487b7160e01b600052603260045260246000fd5b60200260200101819052506040518060400160405280600f81526020016e436f6e7461696e205265636f72647360881b81525081600581518110620002d957634e487b7160e01b600052603260045260246000fd5b60200260200101819052506040518060400160405280600981526020016839373435363837343560b81b815250816006815181106200032857634e487b7160e01b600052603260045260246000fd5b60209081029190910181019190915260408051808201825260058152642a24a124a760d91b8184015281518083018352600381526270726f60e81b8185015282518084018452601c81527f313233666176736a3132626233323468623132763431323331326233000000008186015283518085018552600781526632332f352f323160c81b8187015284518086018652600b81526a1c1b9a1a9c991a9b99191960a91b8188015285518087018752600681526530a0309734b760d11b818901528651808801909752601d87527f333473643332333432333461666666666565626263633332333432333400000097870197909752620004299688966200069e565b6200054581604051806040016040528060048152602001634841524960e01b815250604051806040016040528060068152602001656d657468643560d01b8152506040518060400160405280601c81526020017f313233666176736a3132626233323468623132763431323331326233000000008152506040518060400160405280600781526020016632332f352f323160c81b8152506040518060400160405280600b81526020016a1c1b9a1a9c991a9b99191960a91b8152506040518060400160405280600681526020016530a0309734b760d11b8152506040518060400160405280601d81526020017f33347364333233343233346166666666656562626363333233343233340000008152506200069e60201b60201c565b5062000d22565b6000816200058860008460405162000565919062000bf1565b908152604051908190036020019020546200058290600162000c38565b6200089d565b6040516020016200059b92919062000c06565b6040516020818303038152906040529050600082604051620005be919062000bf1565b9081526040805191829003602090810183206080840183528784528382018590529183018690526060830185905281546001810183556000928352918190208351805160049094029091019262000619928492019062000a49565b50602082810151805162000634926001850192019062000a49565b50604082015180516200065291600284019160209091019062000a49565b50606082015180516200067091600384019160209091019062000a49565b50505060008260405162000685919062000bf1565b9081526040519081900360200190205460045550505050565b6000600289600081518110620006c457634e487b7160e01b600052603260045260246000fd5b6020026020010151604051620006db919062000bf1565b90815260405190819003602001902054620006f890600162000c38565b90506002896000815181106200071e57634e487b7160e01b600052603260045260246000fd5b602002602001015160405162000735919062000bf1565b908152604080519182900360209081018320610120840183528c84528382018c90529183018a9052606083018990526080830188905260a0830187905260c0830186905260e083018490526101008301859052815460018101835560009283529181902083518051600990940290910192620007b5928492019062000ad8565b506020828101518051620007d0926001850192019062000a49565b5060408201518051620007ee91600284019160209091019062000a49565b50606082015180516200080c91600384019160209091019062000a49565b50608082015180516200082a91600484019160209091019062000a49565b5060a082015180516200084891600584019160209091019062000a49565b5060c082015180516200086691600684019160209091019062000a49565b5060e0820151600782015561010082015180516200088f91600884019160209091019062000a49565b505050505050505050505050565b60408051606480825260a08201909252606091906000908260208201818036833701905050905060005b84156200094a576000620008dd600a8762000cdf565b9050620008ec600a8762000c53565b9550620008fb81603062000c38565b60f81b83836200090b8162000cc1565b9450815181106200092c57634e487b7160e01b600052603260045260246000fd5b60200101906001600160f81b031916908160001a90535050620008c7565b6000816001600160401b038111156200097357634e487b7160e01b600052604160045260246000fd5b6040519080825280601f01601f1916602001820160405280156200099e576020820181803683370190505b50905060005b8281101562000a3f57836001620009bc838662000c6a565b620009c8919062000c6a565b81518110620009e757634e487b7160e01b600052603260045260246000fd5b602001015160f81c60f81b82828151811062000a1357634e487b7160e01b600052603260045260246000fd5b60200101906001600160f81b031916908160001a9053508062000a368162000cc1565b915050620009a4565b5095945050505050565b82805462000a579062000c84565b90600052602060002090601f01602090048101928262000a7b576000855562000ac6565b82601f1062000a9657805160ff191683800117855562000ac6565b8280016001018555821562000ac6579182015b8281111562000ac657825182559160200191906001019062000aa9565b5062000ad492915062000b38565b5090565b82805482825590600052602060002090810192821562000b2a579160200282015b8281111562000b2a578251805162000b1991849160209091019062000a49565b509160200191906001019062000af9565b5062000ad492915062000b4f565b5b8082111562000ad4576000815560010162000b39565b8082111562000ad457600062000b66828262000b70565b5060010162000b4f565b50805462000b7e9062000c84565b6000825580601f1062000b92575062000bb2565b601f01602090049060005260206000209081019062000bb2919062000b38565b50565b60008151815b8181101562000bd7576020818501810151868301520162000bbb565b8181111562000be65782828601525b509290920192915050565b600062000bff828462000bb5565b9392505050565b600062000c14828562000bb5565b651d21a0a9a29d60d11b815262000c2f600682018562000bb5565b95945050505050565b6000821982111562000c4e5762000c4e62000cf6565b500190565b60008262000c655762000c6562000d0c565b500490565b60008282101562000c7f5762000c7f62000cf6565b500390565b60028104600182168062000c9957607f821691505b6020821081141562000cbb57634e487b7160e01b600052602260045260246000fd5b50919050565b600060001982141562000cd85762000cd862000cf6565b5060010190565b60008262000cf15762000cf162000d0c565b500690565b634e487b7160e01b600052601160045260246000fd5b634e487b7160e01b600052601260045260246000fd5b611e8e8062000d326000396000f3fe608060405234801561001057600080fd5b50600436106100885760003560e01c806392d0d1531161005b57806392d0d153146101035780639d5061f91461010b578063e569190f1461011e578063f478e97e1461013e57610088565b80630f59b3801461008d5780634f002fee146100b657806368413fca146100cb5780637c6d887d146100ee575b600080fd5b6100a061009b36600461185c565b610165565b6040516100ad9190611ae9565b60405180910390f35b6100c96100c4366004611725565b6106c7565b005b6100de6100d936600461191b565b6108ae565b6040516100ad9493929190611c0d565b6100f6610b2a565b6040516100ad9190611d06565b6100f6610b30565b6100c9610119366004611897565b610b36565b61013161012c36600461185c565b610c74565b6040516100ad9190611a30565b61015161014c36600461191b565b610f2f565b6040516100ad989796959493929190611c65565b6060600060028360405161017991906119d3565b9081526020016040518091039020805480602002602001604051908101604052809291908181526020016000905b828210156106bb57838290600052602060002090600902016040518061012001604052908160008201805480602002602001604051908101604052809291908181526020016000905b8282101561029c57838290600052602060002001805461020f90611dac565b80601f016020809104026020016040519081016040528092919081815260200182805461023b90611dac565b80156102885780601f1061025d57610100808354040283529160200191610288565b820191906000526020600020905b81548152906001019060200180831161026b57829003601f168201915b5050505050815260200190600101906101f0565b5050505081526020016001820180546102b490611dac565b80601f01602080910402602001604051908101604052809291908181526020018280546102e090611dac565b801561032d5780601f106103025761010080835404028352916020019161032d565b820191906000526020600020905b81548152906001019060200180831161031057829003601f168201915b5050505050815260200160028201805461034690611dac565b80601f016020809104026020016040519081016040528092919081815260200182805461037290611dac565b80156103bf5780601f10610394576101008083540402835291602001916103bf565b820191906000526020600020905b8154815290600101906020018083116103a257829003601f168201915b505050505081526020016003820180546103d890611dac565b80601f016020809104026020016040519081016040528092919081815260200182805461040490611dac565b80156104515780601f1061042657610100808354040283529160200191610451565b820191906000526020600020905b81548152906001019060200180831161043457829003601f168201915b5050505050815260200160048201805461046a90611dac565b80601f016020809104026020016040519081016040528092919081815260200182805461049690611dac565b80156104e35780601f106104b8576101008083540402835291602001916104e3565b820191906000526020600020905b8154815290600101906020018083116104c657829003601f168201915b505050505081526020016005820180546104fc90611dac565b80601f016020809104026020016040519081016040528092919081815260200182805461052890611dac565b80156105755780601f1061054a57610100808354040283529160200191610575565b820191906000526020600020905b81548152906001019060200180831161055857829003601f168201915b5050505050815260200160068201805461058e90611dac565b80601f01602080910402602001604051908101604052809291908181526020018280546105ba90611dac565b80156106075780601f106105dc57610100808354040283529160200191610607565b820191906000526020600020905b8154815290600101906020018083116105ea57829003601f168201915b505050505081526020016007820154815260200160088201805461062a90611dac565b80601f016020809104026020016040519081016040528092919081815260200182805461065690611dac565b80156106a35780601f10610678576101008083540402835291602001916106a3565b820191906000526020600020905b81548152906001019060200180831161068657829003601f168201915b505050505081525050815260200190600101906101a7565b50929695505050505050565b60006002896000815181106106ec57634e487b7160e01b600052603260045260246000fd5b602002602001015160405161070191906119d3565b9081526040519081900360200190205461071c906001611d39565b905060028960008151811061074157634e487b7160e01b600052603260045260246000fd5b602002602001015160405161075691906119d3565b908152604080519182900360209081018320610120840183528c84528382018c90529183018a9052606083018990526080830188905260a0830187905260c0830186905260e0830184905261010083018590528154600181018355600092835291819020835180516009909402909101926107d492849201906114f1565b5060208281015180516107ed926001850192019061154e565b506040820151805161080991600284019160209091019061154e565b506060820151805161082591600384019160209091019061154e565b506080820151805161084191600484019160209091019061154e565b5060a0820151805161085d91600584019160209091019061154e565b5060c0820151805161087991600684019160209091019061154e565b5060e0820151600782015561010082015180516108a091600884019160209091019061154e565b505050505050505050505050565b815160208184018101805160008252928201918501919091209190528054829081106108d957600080fd5b9060005260206000209060040201600091509150508060000180546108fd90611dac565b80601f016020809104026020016040519081016040528092919081815260200182805461092990611dac565b80156109765780601f1061094b57610100808354040283529160200191610976565b820191906000526020600020905b81548152906001019060200180831161095957829003601f168201915b50505050509080600101805461098b90611dac565b80601f01602080910402602001604051908101604052809291908181526020018280546109b790611dac565b8015610a045780601f106109d957610100808354040283529160200191610a04565b820191906000526020600020905b8154815290600101906020018083116109e757829003601f168201915b505050505090806002018054610a1990611dac565b80601f0160208091040260200160405190810160405280929190818152602001828054610a4590611dac565b8015610a925780601f10610a6757610100808354040283529160200191610a92565b820191906000526020600020905b815481529060010190602001808311610a7557829003601f168201915b505050505090806003018054610aa790611dac565b80601f0160208091040260200160405190810160405280929190818152602001828054610ad390611dac565b8015610b205780601f10610af557610100808354040283529160200191610b20565b820191906000526020600020905b815481529060010190602001808311610b0357829003601f168201915b5050505050905084565b60045490565b60045481565b600081610b6c600084604051610b4c91906119d3565b90815260405190819003602001902054610b67906001611d39565b61135b565b604051602001610b7d9291906119ef565b6040516020818303038152906040529050600082604051610b9e91906119d3565b90815260408051918290036020908101832060808401835287845283820185905291830186905260608301859052815460018101835560009283529181902083518051600490940290910192610bf7928492019061154e565b506020828101518051610c10926001850192019061154e565b5060408201518051610c2c91600284019160209091019061154e565b5060608201518051610c4891600384019160209091019061154e565b505050600082604051610c5b91906119d3565b9081526040519081900360200190205460045550505050565b606060008083604051610c8791906119d3565b9081526020016040518091039020805480602002602001604051908101604052809291908181526020016000905b828210156106bb5783829060005260206000209060040201604051806080016040529081600082018054610ce890611dac565b80601f0160208091040260200160405190810160405280929190818152602001828054610d1490611dac565b8015610d615780601f10610d3657610100808354040283529160200191610d61565b820191906000526020600020905b815481529060010190602001808311610d4457829003601f168201915b50505050508152602001600182018054610d7a90611dac565b80601f0160208091040260200160405190810160405280929190818152602001828054610da690611dac565b8015610df35780601f10610dc857610100808354040283529160200191610df3565b820191906000526020600020905b815481529060010190602001808311610dd657829003601f168201915b50505050508152602001600282018054610e0c90611dac565b80601f0160208091040260200160405190810160405280929190818152602001828054610e3890611dac565b8015610e855780601f10610e5a57610100808354040283529160200191610e85565b820191906000526020600020905b815481529060010190602001808311610e6857829003601f168201915b50505050508152602001600382018054610e9e90611dac565b80601f0160208091040260200160405190810160405280929190818152602001828054610eca90611dac565b8015610f175780601f10610eec57610100808354040283529160200191610f17565b820191906000526020600020905b815481529060010190602001808311610efa57829003601f168201915b50505050508152505081526020019060010190610cb5565b81516020818401810180516002825292820191850191909120919052805482908110610f5a57600080fd5b906000526020600020906009020160009150915050806001018054610f7e90611dac565b80601f0160208091040260200160405190810160405280929190818152602001828054610faa90611dac565b8015610ff75780601f10610fcc57610100808354040283529160200191610ff7565b820191906000526020600020905b815481529060010190602001808311610fda57829003601f168201915b50505050509080600201805461100c90611dac565b80601f016020809104026020016040519081016040528092919081815260200182805461103890611dac565b80156110855780601f1061105a57610100808354040283529160200191611085565b820191906000526020600020905b81548152906001019060200180831161106857829003601f168201915b50505050509080600301805461109a90611dac565b80601f01602080910402602001604051908101604052809291908181526020018280546110c690611dac565b80156111135780601f106110e857610100808354040283529160200191611113565b820191906000526020600020905b8154815290600101906020018083116110f657829003601f168201915b50505050509080600401805461112890611dac565b80601f016020809104026020016040519081016040528092919081815260200182805461115490611dac565b80156111a15780601f10611176576101008083540402835291602001916111a1565b820191906000526020600020905b81548152906001019060200180831161118457829003601f168201915b5050505050908060050180546111b690611dac565b80601f01602080910402602001604051908101604052809291908181526020018280546111e290611dac565b801561122f5780601f106112045761010080835404028352916020019161122f565b820191906000526020600020905b81548152906001019060200180831161121257829003601f168201915b50505050509080600601805461124490611dac565b80601f016020809104026020016040519081016040528092919081815260200182805461127090611dac565b80156112bd5780601f10611292576101008083540402835291602001916112bd565b820191906000526020600020905b8154815290600101906020018083116112a057829003601f168201915b5050505050908060070154908060080180546112d890611dac565b80601f016020809104026020016040519081016040528092919081815260200182805461130490611dac565b80156113515780601f1061132657610100808354040283529160200191611351565b820191906000526020600020905b81548152906001019060200180831161133457829003601f168201915b5050505050905088565b60408051606480825260a08201909252606091906000908260208201818036833701905050905060005b84156113fd576000611398600a87611e02565b90506113a5600a87611d51565b95506113b2816030611d39565b60f81b83836113c081611de7565b9450815181106113e057634e487b7160e01b600052603260045260246000fd5b60200101906001600160f81b031916908160001a90535050611385565b60008167ffffffffffffffff81111561142657634e487b7160e01b600052604160045260246000fd5b6040519080825280601f01601f191660200182016040528015611450576020820181803683370190505b50905060005b828110156114e75783600161146b8386611d65565b6114759190611d65565b8151811061149357634e487b7160e01b600052603260045260246000fd5b602001015160f81c60f81b8282815181106114be57634e487b7160e01b600052603260045260246000fd5b60200101906001600160f81b031916908160001a905350806114df81611de7565b915050611456565b5095945050505050565b82805482825590600052602060002090810192821561153e579160200282015b8281111561153e578251805161152e91849160209091019061154e565b5091602001919060010190611511565b5061154a9291506115ce565b5090565b82805461155a90611dac565b90600052602060002090601f01602090048101928261157c57600085556115c2565b82601f1061159557805160ff19168380011785556115c2565b828001600101855582156115c2579182015b828111156115c25782518255916020019190600101906115a7565b5061154a9291506115eb565b8082111561154a5760006115e28282611600565b506001016115ce565b5b8082111561154a57600081556001016115ec565b50805461160c90611dac565b6000825580601f1061161e575061163c565b601f01602090049060005260206000209081019061163c91906115eb565b50565b600082601f83011261164f578081fd5b8135602067ffffffffffffffff82111561166b5761166b611e42565b6116788182840201611d0f565b82815281810190858301855b858110156116ad5761169b898684358b01016116ba565b84529284019290840190600101611684565b5090979650505050505050565b600082601f8301126116ca578081fd5b813567ffffffffffffffff8111156116e4576116e4611e42565b6116f7601f8201601f1916602001611d0f565b81815284602083860101111561170b578283fd5b816020850160208301379081016020019190915292915050565b600080600080600080600080610100898b031215611741578384fd5b883567ffffffffffffffff80821115611758578586fd5b6117648c838d0161163f565b995060208b0135915080821115611779578586fd5b6117858c838d016116ba565b985060408b013591508082111561179a578586fd5b6117a68c838d016116ba565b975060608b01359150808211156117bb578586fd5b6117c78c838d016116ba565b965060808b01359150808211156117dc578586fd5b6117e88c838d016116ba565b955060a08b01359150808211156117fd578485fd5b6118098c838d016116ba565b945060c08b013591508082111561181e578384fd5b61182a8c838d016116ba565b935060e08b013591508082111561183f578283fd5b5061184c8b828c016116ba565b9150509295985092959890939650565b60006020828403121561186d578081fd5b813567ffffffffffffffff811115611883578182fd5b61188f848285016116ba565b949350505050565b6000806000606084860312156118ab578283fd5b833567ffffffffffffffff808211156118c2578485fd5b6118ce878388016116ba565b945060208601359150808211156118e3578384fd5b6118ef878388016116ba565b93506040860135915080821115611904578283fd5b50611911868287016116ba565b9150509250925092565b6000806040838503121561192d578182fd5b823567ffffffffffffffff811115611943578283fd5b61194f858286016116ba565b95602094909401359450505050565b60008282518085526020808601955080818302840101818601855b848110156116ad57601f198684030189526119958383516119a7565b98840198925090830190600101611979565b600081518084526119bf816020860160208601611d7c565b601f01601f19169290920160200192915050565b600082516119e5818460208701611d7c565b9190910192915050565b60008351611a01818460208801611d7c565b651d21a0a9a29d60d11b9083019081528351611a24816006840160208801611d7c565b01600601949350505050565b60208082528251828201819052600091906040908185019080840286018301878501865b83811015611adb57603f19898403018552815160808151818652611a7a828701826119a7565b915050888201518582038a870152611a9282826119a7565b9150508782015185820389870152611aaa82826119a7565b91505060608083015192508582038187015250611ac781836119a7565b968901969450505090860190600101611a54565b509098975050505050505050565b60208082528251828201819052600091906040908185019080840286018301878501865b83811015611adb57603f1989840301855281516101208151818652611b348287018261195e565b915050888201518582038a870152611b4c82826119a7565b9150508782015185820389870152611b6482826119a7565b91505060608083015186830382880152611b7e83826119a7565b9250505060808083015186830382880152611b9983826119a7565b9250505060a08083015186830382880152611bb483826119a7565b9250505060c08083015186830382880152611bcf83826119a7565b9250505060e08083015181870152506101008083015192508582038187015250611bf981836119a7565b968901969450505090860190600101611b0d565b600060808252611c2060808301876119a7565b8281036020840152611c3281876119a7565b90508281036040840152611c4681866119a7565b90508281036060840152611c5a81856119a7565b979650505050505050565b6000610100808352611c798184018c6119a7565b90508281036020840152611c8d818b6119a7565b90508281036040840152611ca1818a6119a7565b90508281036060840152611cb581896119a7565b90508281036080840152611cc981886119a7565b905082810360a0840152611cdd81876119a7565b90508460c084015282810360e0840152611cf781856119a7565b9b9a5050505050505050505050565b90815260200190565b60405181810167ffffffffffffffff81118282101715611d3157611d31611e42565b604052919050565b60008219821115611d4c57611d4c611e16565b500190565b600082611d6057611d60611e2c565b500490565b600082821015611d7757611d77611e16565b500390565b60005b83811015611d97578181015183820152602001611d7f565b83811115611da6576000848401525b50505050565b600281046001821680611dc057607f821691505b60208210811415611de157634e487b7160e01b600052602260045260246000fd5b50919050565b6000600019821415611dfb57611dfb611e16565b5060010190565b600082611e1157611e11611e2c565b500690565b634e487b7160e01b600052601160045260246000fd5b634e487b7160e01b600052601260045260246000fd5b634e487b7160e01b600052604160045260246000fdfea264697066735822122075720caa333d3f6deda85be79238b3c4d6b8eb65a61e03b902365a48946ca8be64736f6c63430008000033",
  "immutableReferences": {},
  "source": "// SPDX-License-Identifier: MIT\npragma solidity >=0.8.0;\npragma experimental ABIEncoderV2;\ncontract Evidence\n{\n\nstruct Case\n{\nstring  caseName;\nstring  caseNumber;\nstring  caseReason;\nstring investorID;\n\n}\nmapping(string  => Case[]) public Cases;\nstring [] cases;\n\nstruct Item\n{\n// string caseid;\n// string evidtype;\n// string modelno;\n// string serial;\n// string contentOwner;\n// string contentDescription;\n// string ownerContact;\nstring[] data;\nstring agent;\nstring method;\nstring hashing;\nstring Time;\nstring gentInfo;\nstring pid;\nuint itemNo;\nstring hashofhash;\n\n}\n\nmapping(string  => Item[]) public Items;\nstring [] items; \n\nuint public t=0;\n\n constructor()  {\n   createCase(\"t1\", \"t2\" ,\"a@a.in\");\n   createCase(\"p1\", \"p2\" ,\"a@a.in\");\n    string[] memory newArray = new string[](7);\n  // createEvid(\"a@a.in:CASE:1\", \"a@a.in\", \"pendrive\" , \"abc123\", \"123\");\n  //createEvid(\"a@a.in:CASE:1\", \"a@a.in\", \"pendrive2\" , \"abc\", \"13\");\n  newArray[0]=\"a@a.in:CASE:1\";\n  newArray[1]=\"pendrive\";\n  newArray[2]=\"123\";\n  newArray[3]=\"s123\";\n  newArray[4]=\"ABC\";\n  newArray[5]=\"Contain Records\";\n  newArray[6]=\"974568745\";\n  \n  \n  createEvid(newArray,\"TIBIN\",\"pro\",\"123favsj12bb324hb12v412312b3\",\"23/5/21\",\"87459257222\",\"a@a.in\",\"34sd3234234affffeebbcc3234234\");\n  createEvid(newArray,\"HARI\",\"methd5\",\"123favsj12bb324hb12v412312b3\",\"23/5/21\",\"87459257222\",\"a@a.in\",\"34sd3234234affffeebbcc3234234\");\n  }\n\n\n\nfunction uintToString(uint v) private pure returns (string memory) {\n    uint maxlength = 100;\n    bytes memory reversed = new bytes(maxlength);\n    uint i = 0;\n    while (v != 0) {\n        uint remainder = v % 10;\n        v = v / 10;\n        reversed[i++] = bytes1(uint8(48 + remainder));\n    }\n    bytes memory s = new bytes(i); // i + 1 is inefficient\n    for (uint j = 0; j < i; j++) {\n        s[j] = reversed[i - j - 1]; // to avoid the off-by-one error\n    }\n    string memory str = string(s);  // memory isn't implicitly convertible to storage\n    return str;\n}\n\n\nfunction createCase(string memory _name, string memory _reason ,string memory _pid) public\n{\n \n \nstring memory caseNumber= string(abi.encodePacked(_pid,\":CASE:\", uintToString(Cases[_pid].length+1)));\n\n \n\nCases[_pid].push(Case(_name,caseNumber,_reason,_pid));\nt= Cases[_pid].length;\n}\n\n\nfunction createEvid(string[] memory _data,string memory _agent,string memory _method,string memory _hash,string memory _Time,string memory _agentInfo,string memory _pid,string memory _hashofhash) public\n{\n\n \nuint itemNo= Items[_data[0]].length+1;\n\nItems[_data[0]].push(Item(_data,_agent,_method,_hash,_Time, _agentInfo,_pid,itemNo,_hashofhash));\n}\n\n\nfunction viewCase(string memory _pid) public view returns (Case[] memory)\n{\n  Case[] memory temp = Cases[_pid];\n  return temp;\n}\n\nfunction viewEvid(string memory _caseNumber) public view returns (Item[] memory)\n{\n  Item[] memory temp = Items[_caseNumber];\n  return temp;\n}\n\nfunction tvalue() public view returns (uint)\n{\n return t;\n\n}\n\n}",
  "sourcePath": "H:\\Reactjs\\test\\backend\\contracts\\Evidence.sol",
  "compiler": {
    "name": "solc",
    "version": "0.8.0+commit.c7dfd78e.Emscripten.clang"
  },
  "schemaVersion": "3.4.3",
  "updatedAt": "2021-09-17T12:37:10.420Z",
  "networkType": "ethereum",
  "devdoc": {
    "kind": "dev",
    "methods": {},
    "version": 1
  },
  "userdoc": {
    "kind": "user",
    "methods": {},
    "version": 1
  }
}